:020000022000DC
:1060000000F0002035620200656202006762020053
:10601000696202006B6202006D6202000000000013
:106020000000000000000000000000006F6202009D
:1060300071620200000000007362020075620200DB
:10604000796202007B6202007D6202007F620200D0
:106050008162020083620200396F020087620200DF
:10606000896202008B620200356703008F620200C2
:106070009162020093620200956202009762020040
:1060800099620200A99D030099B602009F62020076
:10609000D19D0300A3620200D1FD0300A7620200AC
:1060A000A9620200AB620200AD620200AF620200B0
:1060B000B9A40300B36202007762020077620200B3
:1060C000B5620200B7620200B9620200BB62020060
:0C60D000BD620200BF620200C16202005B
:1060DC00354936480A1A02D0072291438D46344975
:1060EC0034480A1A06D00722914381F30988022208
:1060FC0082F3148830483149314A00F043F8314872
:10610C003149324A00F03EF831483249324A00F007
:10611C0039F832483249334A00F034F832483349BE
:10612C00334A00F02FF833483349344A00F02AF848
:10613C0033483449344A00F025F8344834490022B5
:10614C0000F02BF833483449002200F026F833488D
:10615C003349091A082903DB00220260043001606C
:10616C001F482049884205D00268043003B4904788
:10617C0003BCF7E700208646EC4600200021294AA4
:10618C009047FEE7884207D0521A05D003780130B9
:10619C000B700131013AF9D17047884202D002707C
:1061AC000130FAE77047000000F0002000E8002002
:1061BC0000F0002000F00020501F0400C832002026
:1061CC0030340020C4620200C46202009C0104004E
:1061DC00501F0400C8320020C8320020A80204005E
:1061EC00A8020400A8020400A8020400A8020400EB
:1061FC00A8020400A8020400A8020400501F040016
:10620C00B82004003034002030340020303400201A
:10621C00506C0020506C0020506C0020506C002002
:10622C0050700020C16A020008484FF007018843F3
:10623C008546074880470748016841F470010160B2
:10624C00BFF34F8FBFF36F8FFFF742BF00F00020FB
:10625C00B1A1030088ED00E0FEE7FEE7FEE7FEE7F4
:10626C00FEE7FEE7FEE7FEE7FEE7FEE7FEE7FEE7FA
:10627C00FEE7FEE7FEE7FEE7FEE7FEE7FEE7FEE7EA
:10628C00FEE7FEE7FEE7FEE7FEE7FEE7FEE7FEE7DA
:10629C00FEE7FEE7FEE7FEE7FEE7FEE7FEE7FEE7CA
:1062AC00FEE7FEE7FEE7FEE7FEE7FEE7FEE7FEE7BA
:0862BC00FEE7FEE7FEE700BF6C
:1062C40041DF704776DF70477ADF70477CDF7047C5
:1062D400014B1878704700BF4134002008B504F022
:1062E40049F908BD0C4B1B6813F4804F13D00B4BBA
:1062F4001B68002B0FDD00B583B0094BD3F80435C0
:10630400084A00924FF493720749012006F0CAF933
:1063140003B05DF804FB70473833002034330020A9
:1063240000B00040AC030400A303040010B582B025
:106334000C463A4B1B6813F4804F0ED0384B1B6845
:10634400002B0ADD374BD3F80435374A009240F26C
:106354000D123649012006F0A5F9012C30D0BCB14C
:10636400022C45D02D4B1B6813F4804F0ED02C4BC0
:106374001B68002B0ADD2B4BD3F804352C4A009202
:106384004FF490722949012006F08CF902B010BD37
:106394000122284B1A70214B1B6813F4804FF5D04F
:1063A4001F4B1B68002BF1DD1E4BD3F80435224A2A
:1063B40000924FF489721D49012006F073F9E5E754
:1063C40000221C4B1A70154B1B6813F4804FDDD050
:1063D400134B1B689342D9DD124BD3F80435174A8B
:1063E400009240F217121149012006F05BF9CDE743
:1063F4000A4B1B6813F4804FC8D0094B1B68002B51
:10640400C4DD084BD3F804350D4A009240F21B1248
:106414000649012006F046F9B8E700BF38330020EA
:106424003433002000B00040C8030400A303040078
:106434004C04040042340020E40304000404040077
:10644400240404002DE9F04188B004AF64212E48EF
:1064540000F080FC09F070FA88B92C4B1B78A3B1CA
:1064640000F03AFF2A4B1B6813F4804F03D0294BEA
:106474001B68032B19DC1037BD46BDE8F081264AA2
:1064840040F2951113F0BCFFE7E7244A3B1D07CA0D
:1064940083E80700184600F0FDFB0028E0D01E4A00
:1064A4004FF4D07113F0ACFFDAE7E8468AB00DF18F
:1064B400100E7646002310E0C25C59004FEA121C0D
:1064C400174C256815F80CC006F813C0013102F00A
:1064D4000F022468A25C725401330F2BECD9002301
:1064E4008EF820300F4BD3F80435CDF808E00E4A6F
:1064F40001920E4A00924FF4D2720D49042006F024
:10650400D1F8C546B7E700BF1D680200403400203B
:10651400383300203433002004030400A8020400AC
:106524003C33002000B00040600504007005040006
:10653400A303040000B583B09DF80430012262F384
:10654400030362F3071302A800F8043D102205496F
:10655400FFF7BCFE10B903B05DF804FB13F042FF73
:10656400F9E700BF6004040008B513F03BFF08BD61
:1065740000B583B0037823B1012B0BD003B05DF8D1
:1065840004FB3B214088FFF79DFE0028F6D013F062
:1065940029FFF3E7094B1B6813F4804FEED0084B37
:1065A4001B68032BEADD074BD3F80435064A009237
:1065B400EF220649042006F075F8DFE7383300209F
:1065C4003433002000B00040E8040400A3030400B6
:1065D40000B58BB0002302931423ADF8043050238C
:1065E400ADF806304FF4C873ADF80A3001A8FFF7D0
:1065F4006BFEC0B900230693079301AB039340F6E7
:10660400CD4304934FF48033059303238DF818305E
:10661400084B0893084B099303A813F0ABF828B967
:106624000BB05DF804FB13F0DDFEE3E713F0DAFED4
:10663400F6E700BF756502006D65020000B585B020
:10664400204B1B6813F4804F03D01F4B1B68032B94
:106654001DDCFFF76FFFFFF7BBFF03A80EF03CFA4A
:10666400184B1B6813F4804F03D0174B1B68032B84
:1066740018DC00214FF4F01000F0D5FB0422C821EF
:106684004FF4F01000F0DAFB05B05DF804FB0F4B9B
:10669400D3F804350E4A0092FA220E49042006F07B
:1066A40001F8D6E7094BD3F80435BDF80C20019264
:1066B400094A00924FF481720649042005F0F2FF62
:1066C400D7E700BF383300203433002000B0004047
:1066D4002C050400A30304004805040000B583B09E
:1066E4000DF10601084B18880CF014F848B9BDF8F0
:1066F40006204FF6FF739A4200D0012003B05DF8E4
:1067040004FB0020FAE700BF3034002000B583B05A
:106714000F4B1B6813F4804F03D00E4B1B68032BE5
:106724000ADC0322C8214FF4F01000F087FB09F0C3
:1067340015F903B05DF804FB074BD3F80435074A99
:10674400009290220649042005F0ACFFE9E700BF5F
:10675400383300203433002000B00040CC0404005F
:10676400A303040010B582B00446234B1B6813F442
:10677400804F03D0214B1B68032B08DCFFF7AEFFCF
:1067840018B1012C0FD9032C17D002B010BD1C4B2B
:10679400D3F8043501901B4A0092B4221A4904200C
:1067A40005F080FFEAE7194B197881F001011970AF
:1067B4000522174819F0C6F8E7E709F077F898B901
:1067C4000D4B1B6813F4804FDFD00C4B1B68032B5D
:1067D400DBDD0B4BD3F804350E4A0092D1220A4973
:1067E400042005F05FFFD0E70AF038FC09F056F802
:1067F400FFF78CFFC9E700BF383300203433002093
:1068040000B00040B8020400A30304004234002096
:1068140030340020CC02040008B5A0F13003042B6E
:1068240000D908BD1846FFF79DFFFAE708B50378BD
:106834001C2B00D008BDFFF769FFFBE700B58FB044
:10684400184BDB680EA941F8143D04220AA800F095
:10685400A7FBD0B924220021684619F039FC012392
:106864008DF8003007238DF803308DF808300AAB1B
:1068740003930D4B04930D4B08930D49684609F09F
:1068840023F840B90FB05DF804FB0A4A4FF49E7137
:1068940013F0B6FDDEE7074A40F2451113F0B0FDF0
:1068A400F0E700BFA8020400316802008569020015
:1068B400403400200403040000B585B0284A0421B4
:1068C40046F2010005F0D2FE264B1B6813F4804FFC
:1068D40003D0254B1B68032B20DC13F07BFA48BB49
:1068E40000F0DCFA214800F0F9FA48BB19F0E0F9AD
:1068F40060BB04A9002341F8043D012012F080FD8F
:1069040038BB03A812F0CEFD30BBFFF713FEFFF730
:106914005FFEFFF793FF05B05DF804FB144BD3F85B
:106924000435144A009240F275121349042005F00C
:10693400B9FED2E7114A40F2771113F061FDCFE7B7
:106944000E4A40F27B1113F05BFDCFE713F04AFDD2
:10695400CFE713F047FDD4E713F044FDD5E700BFBC
:1069640045C6020038330020343300206967020032
:1069740000B0004074040400A303040004030400F2
:1069840000B583B0254B1B6813F4804F03D0244B10
:106994001B68032B1EDC2348234B4360234B83607B
:1069A400002119F04DF808BB1E4B18880BF0A0FF0E
:1069B40010BB1F481F4B43601F4B8360012118F01D
:1069C4009BFFF8B91A4B18880BF092FF00BB03B079
:1069D4005DF804FB194BD3F80435194A009240F2D0
:1069E4002B121849042005F05DFED4E7164A4FF433
:1069F400977113F005FDD7E7134A40F22F1113F0F6
:106A0400FFFCD6E7104A40F2331113F0F9FCD9E742
:106A14000D4A4FF49A7113F0F3FCD8E73833002091
:106A24003433002044340020D5620200516A02004D
:106A34003034002031630200E962020000B00040FB
:106A4400AC040400A30304000403040010B582B0E2
:106A54000C46144B1B6813F4804F03D0124B1B6875
:106A6400032B0ADCACB90021112000F0CBF9002281
:106A74000E4B1A70204602B010BD0D4BD3F80435EE
:106A840001910C4A00927F220B49042005F00AFE72
:106A9400E8E70121112000F0B5F90122034B1A7037
:106AA400E8E700BF383300203433002041340020AD
:106AB40000B0004014050400A303040008B5FFF768
:106AC400FBFEEFF3108572B6174B9B689BB9164A11
:106AD40001239360154BD3F88010154801401160D1
:106AE400C3F88000D3F8841051604FF0FF32C3F82C
:106AF4008420002400E0012405B962B6FFF7A2FC5B
:106B0400094B9B686BB164B9EFF3108372B6064A04
:106B1400106806490860506848600021916003B914
:106B240062B6FFF7CDFBFCE7746A002000E100E0E9
:106B3400FC06FFBD2C4B1B78002B54D000B585B050
:106B4400012804D0032847D005B05DF804FB04A94C
:106B5400002341F8083D012012F052FC48BB02A872
:106B640012F0A0FC40BB04A9012341F8043D0DF13F
:106B740006000EF00DFD10BBBDF806000EF0A0F9E6
:106B84000DF105010EF0F2FAE0B90AF041F99DF8B1
:106B9400051000200AF07AFAB8B903F051FCC0B924
:106BA4000022114B1A70114B1B68002BCCD0984754
:106BB400CAE713F017FCD2E713F014FCD3E713F081
:106BC40011FCD9E713F00EFCDFE7784600F052FB26
:106BD400E3E713F007FCE3E719F06AF80028B3D001
:106BE40013F000FCB0E77047513400205434002007
:106BF40008B50122074B1A7003F074FC18B919F098
:106C04009DF818B908BD13F0EDFBF8E713F0EAFBA3
:106C1400F8E700BF5134002008B5032300220349DC
:106C24004968034814F04EFA08BD00BF54340020EC
:106C34009836002008B50378072B0DD00A2B16D000
:106C4400022B00D008BD104B1B7813B9FFF7E4FFEB
:106C540008BDFFF7CDFF08BD10220C4B99680C4806
:106C640014F0C0FA0028EDD013F0BCFB08BD816815
:106C7400C06808F0D8FD18B90122034B1A70E1E787
:106C840013F0B0FBF8E700BF503400205434002068
:106C94009836002010B586B004461E4A03AB07CAD6
:106CA40003C323F8022B120C1A701B4B94E8070041
:106CB40083E8070052B31949194814F0E7F9034669
:106CC40028BB184B009303AB144A1549164814F01B
:106CD40099F90346D8B9154815F072FD01461248D2
:106CE40014F0BCF9034690B9114813F043FD034670
:106CF40068B90F4813F074FD01460B4814F0AEF95F
:106D0400034620B9FFF788FF034600E0072318462F
:106D140006B010BD880504005434002060340020FF
:106D2400CC370020396C02009836002080340020D3
:106D34004836002008B5064B1B683BB110F0FAFD3D
:106D4400002803DB024B1B689847F7E708BD00BF28
:106D54000C38002010B50C46144B1860144A01215D
:106D6400144813F067F8A0B9610CE00341F26F72A4
:106D740000238B4208BF824210D24FF47A72002360
:106D840019F028F8014600220B4813F069F838B9C5
:106D940010BD0A4A462113F033FBE5E70521F2E76B
:106DA400064A472113F02CFBF2E700BF0C38002001
:106DB400396D020094050400103800209805040081
:106DC40008B50D4B1B6873B14FF0A042D2F80435DF
:106DD4000A4909684B40C2F80435074A1368013B65
:106DE400136023B108BD002013F0FCFAECE704485B
:106DF40013F054F8F6E700BF303800203438002090
:106E04003838002039B9012303FA00F04FF0A043C9
:106E1400C3F808057047012303FA00F04FF0A043BC
:106E2400C3F80C05704721B94FF0A043C3F8080517
:106E340070474FF0A043C3F80C05704712B11346D6
:106E4400132900D8704770B5114A10605B00013BEC
:106E5400104A136000264D0CCC034FF47A720023C1
:106E640014F5FA7045F1000118F0B4FF32460146FA
:106E7400094812F0F5FF48B94FF0A042D2F80435A2
:106E84000349096823EA0103C2F8043570BD00BF51
:106E940034380020303800203838002008B5112359
:106EA4000BE04FF0A04103F5E072032041F822000B
:106EB40001229A40C1F808250133142BF1D9054A5F
:106EC4000121054812F0B6FF00B908BD13F08AFA93
:106ED400FBE700BFC56D020028060400F0B1104AAC
:106EE4001060002309E00F4AD25C02F5E0720E48FC
:106EF4004FF0A04141F822000133032BF3D90B4B8F
:106F04004FF00042C3F804230020C3F87C01084B6F
:106F1400E02283F8062340221A6070470E2070474F
:106F2400583800202C0604000C00030000600040C8
:106F340000E100E010B50024144BC3F87C4103E0E9
:106F4400D11A14E00134E4B2032C1ED84FF0A0434C
:106F5400D3F810250E4B195D01238B409343F1D0D8
:106F64000C4B1B680C4AD2F80425991AE8D443F256
:106F740033339942E6D9084BD3F80425054B1A60FC
:106F8400064B1B6820469847DCE710BD00600040B4
:106F94002C0604005C38002000B000405838002063
:106FA400082A01D90920704738B51446054619F056
:106FB40065F8C4F108020021281919F089F8034B77
:106FC40003CBA860E960002038BD00BF600000105A
:106FD40072DF704773DF704774DF70472DE9F04745
:106FE400A2B0074688469146314C00266660E660AA
:106FF40030490B78C3EB43102F4D054425602F4ACD
:107004000244A2601F22A280A281013303F0010383
:107014000B704FF03C0A5246314613A819F058F849
:1070240006238DF84F30ADF8487001238DF84A30AF
:10703400ADF85C3012AA1892ADF83C70ADF84090EF
:10704400CDF844800DEB0A021D928DF8783052463B
:107054003146684619F03CF802238DF80030221DB1
:10706400294613A812F0C2F890B9114B03F10C028F
:107074009968684612F0BAF868B9114A0C4911487F
:10708400FFF7A6FF082809D070B922B0BDE8F08741
:1070940013F0A8F9E9E713F0A5F9EEE70022044993
:1070A4000848FFF795FFEFE713F09CF9EDE700BF01
:1070B400A43800206038002064380020B438002050
:1070C400CC320020C8320020034B00EB8000420089
:1070D4009A819960704700BFCC32002008B5012125
:1070E400054B1878FFF776FF10B904F011F908BDC5
:1070F40013F078F9F9E700BFC832002008B5044B53
:107104001878FFF769FF00B908BD13F06BF9FBE7C6
:10711400C83200200620704700B587B041F2010351
:10712400984244D020D944F20103984255D044F205
:10713400020398426CD1454B1B6813F4804F2AD04C
:10714400434B1B68002B26DD424BD3F804351088D3
:1071540003905268029201913F4A00925F223F4994
:10716400012005F09FFA16E0012851D1374B1B6826
:1071740013F4804F0FD0364B1B68002B0BDD354BBF
:10718400D3F8043502920191354A009254223349CE
:10719400012005F087FA4FF0A0434FF4F012C3F832
:1071A4001825C3F80C25EFF3108372B646E0274B7D
:1071B4001B6813F4804FEED0254B1B68002BEADDCF
:1071C400244BD3F8043502920191264A00925722A7
:1071D4002249012005F066FADDE71C4B1B6813F415
:1071E400804FD8D01A4B1B68002BD4DD194BD3F831
:1071F40004351068049050680390029192680192DB
:10720400194A009269221549012005F04BFAC2E798
:107214000E4B1B6813F4804FBDD00D4B1B68002B25
:10722400B9DD0C4BD3F804350191104A00926D225C
:107234000A49012005F036FAADE730BF0C4B1B7844
:10724400002BFAD107B05DF804FB00BF38330020EF
:107254003433002000B0004004070400B3060400E7
:10726400C4060400E00604002407040048070400E0
:10727400E432002000B583B00023ADF80030054BA4
:1072840001936A46014644F20200FFF745FF03B04A
:107294005DF804FBE003040010B40346044C0068EA
:1072A40059689A68DB680FC45DF8044B704700BFE7
:1072B400F4380020064B074A92E8030083E80300F1
:1072C4000833443292E8030083E80300704700BFA8
:1072D400F43800206000001000487047F4380020A3
:1072E400002308E0074901EBC3000022428042600A
:1072F40001F8332001331F2BF4D90022024B1A600A
:10730400704700BF04390020043A002030B4054619
:107314000F4B1B6800240AE01F230E4A12F83300A7
:10732400A0B102EBC3025288AA4207D001341F2C39
:107334000BD85A1E002BEFD01346EEE7054A02EB9A
:10734400C30252688A42F1D100E0002030BC704789
:10735400043A00200439002030B40A4A13680A4C65
:1073640004EBC30568806960012104F833100B4401
:107374001360202B01D030BC70470022014B1A60EF
:10738400F9E700BF043A002004390020C0F30C03DD
:107394008B4202D3C91A08447047C91A0844A0F59D
:1073A40000507047C37D002B41D083780A7802F0E7
:1073B400800203F07F0313430B7002780B7803F011
:1073C4007F0343EAC2130B7003787BB330B4437872
:1073D400082B14BF002201224B7803F07F0343EAF9
:1073E400C2134B70858803F08003C5F386142343CE
:1073F4004B708A7802F0030242EA8502D2B28A70A4
:10740400857902F0FC02C5F3C10422438A70CB786B
:1074140003F01F0343EA4513DBB2CB70C27903F0D8
:10742400E00302F01F021343CB7030BC7047837833
:107434000A7802F0BF029B0103F0400313430B7070
:10744400C27803F0C00302F03F0213430B70B4E7A9
:107454000023032B22DC10B402E00133032B19DCDC
:107464006C220F4C02FB034292F84420012AF4D10F
:107474006C2202FB0342948AC2899442EDD16C22AD
:10748400074C02FB034292888A42E6D16C2202FB3B
:10749400034000E000205DF8044B70470020704773
:1074A4007C3A0020002300E00133032B13DC6C2220
:1074B4000A4902FB031292F84420022AF4D16C22F6
:1074C40002FB0312918A828A9142EDD16C22034815
:1074D40002FB030070470020704700BF7C3A002085
:1074E40008B10820704704207047000038B50546ED
:1074F4000C46CB695B78C370CB691B7883F00103BE
:107504008370CB694362087B022814D0FFF7E8FF3D
:107514006870E27A32B9A18AC0F10F03994201DCA2
:10752400082831D0A18A0346C0F10F00814207DC4C
:1075340042B3012205E0154B987DFFF7D1FFE7E741
:1075440001222A7062B1A28A13440B33104A82FBCF
:107554000312DB17C3EB6203013BEB710023AB7136
:107564000023EB7505F10C0294E8030082E80300A4
:10757400A2692A622289AA82A27AAA75226AAA62C6
:10758400184638BD0022DCE7072038BD643A0020E5
:10759400ABAAAA2A30B403460C46097881700021AC
:1075A4004162A1680B2903D8217BF1B1012100E0DC
:1075B400012119700020587029B1A1680731C90848
:1075C4000139D97198710121D97503F10C0504F1C0
:1075D400100103C985E80300E1899982A169196250
:1075E400217F99759A6230BC70470021E1E7000061
:1075F4000021164B1B68994226D20023144A02EB41
:10760400C102526893421DD210B4114A52F831207B
:1076140002EBC30412F8332082420DD001330C4A2A
:1076240002EBC10252689342EFD30131074B1B684E
:10763400994205D20023F2E760685DF8044B704775
:107644000020FAE70131D4E700207047083A00200F
:107654000C3A002070B58CB006460D4614462C2218
:10766400002101A818F034FD0E238DF80430ADF884
:1076740008604FF0000365F300038DF80A308DF8BD
:107684000B4001A801F0F4F80CB070BD30B58DB01A
:1076940005460C462C22002101A818F019FD0F23E1
:1076A4008DF8043002958DF80C4001A801F0E0F843
:1076B4000DB030BD00B58DB048B913F1020F06D03E
:1076C40001228DF80420029301A801F0D1F8034BA4
:1076D400186803F00FFF0DB05DF804FB183A0020A2
:1076E4002DE9F041054688460378BBB10D4B1C6873
:1076F400621C1A6004F00704AB8A0B4F07EBC40644
:107704007380A988A869FFF741FE7060EB6903F0F4
:107714000103737007F83480BDE8F0817846FFF701
:10772400A9FDE3E7603A0020203A002070B5064640
:1077340003784BB1B58A347F04F00104B188B06991
:10774400FFF724FE002304E07846FFF793FDF1E7FA
:107754000133072B15D80C4A02EBC302526890423E
:10776400F6D1094A02EBC30252889542F0D1064A87
:1077740002EBC30252789442EAD1034800EBC300FF
:1077840070BD002070BD00BF203A0020F0B40D6829
:107794004C688F68CE68D5601461576196610D6935
:1077A4004C69D56114620378DB091370D17DF9B19A
:1077B400037803F07F0393700023537013789BB115
:1077C40043789B0103F4FE53817843EA9103938049
:1077D4008378DB0003F01803C17843EA51139371F3
:1077E400C37803F01F03D37100235362F0BC7047C6
:1077F4000178C1F380119170017801F03F01D170DB
:1078040043B1437813F0800F02D008235370D5E7B7
:107814000423FBE704235370D0E770B50C461E46DF
:1078240003788BB104252A44A26000F10C03236081
:10783400836A6360204604F0C3F9024610B92369E1
:107844001D443560104670BD0125ECE72DE9F0417B
:107854008EB00D4616461C46804600282DD0002DBD
:107864002FD0002C31D0636A0233059304F10C004D
:10787400A378002B2DD00121627801AF3B46082A62
:1078840014BF0022012203F07AFF0697CDF81C8072
:10789400B2B2ADF820200B9515440C9563788DF8A1
:1078A4003430237B022B16D00023ADF8283005A8F2
:1078B40003F05DFF0EB0BDE8F0817846FFF7DAFC17
:1078C400CDE77846FFF7D6FCCBE77846FFF7D2FC46
:1078D400C9E70221D0E723692BB123690993102357
:1078E400ADF82830E3E77846FFF7C4FCF5E72DE967
:1078F400F04186B004460D46C37D002B3ED00826D9
:1079040005FB06F8E3799D423AD0A5716B463246F1
:1079140001A92046FFF781FF074648BB4DB994F8FB
:107924004F3033B9A369C3F30C03A380012384F854
:107934004F30E37D7BB994F84E3063B92DBBB4F876
:107944004610627823468A1AA16E0846FFF77EFF26
:10795400012384F84E3005992046FFF723FDA16EDC
:1079640032464144009818F089FB01A804F042F91A
:10797400B7FA87F0400906B0BDE8F0810C26BFE7EE
:10798400B4F84660A6EB0806BFE77846FFF772FC3A
:10799400D5E770B5054690F84C40002601E0013467
:1079A400E4B2EB799C420ED8AA6C0123A3401A429C
:1079B400F5D121462846FFF79AFF20B10136631C12
:1079C40085F84C30EBE7304670BDF0B587B04478AD
:1079D4001444C37D33B10B23A34205D209242046AA
:1079E40007B0F0BD0F23F7E716460F4605466B4672
:1079F400224601A9FFF711FF04460028EFD105999B
:107A04002846FFF7CFFCEB7D43B132463946009858
:107A140018F034FB01A804F0EDF8E0E72B463246F9
:107A240000993846FFF712FFF4E7000010B504464A
:107A340090F84430012B02D07846FFF71BFC237BDF
:107A4400012B0BD0094BDB68A36303F0AFF8A16BE8
:107A5400014404F12C0003F039F810BDA37D034A5E
:107A6400D168126902FB0313A363EEE7643A0020B2
:107A740038B5002400E00134032C13D86C230A4ADF
:107A840003FB042393F84430012BF4D16C2505FB4C
:107A940004252846FFF77DFF0028ECD02846FFF791
:107AA400C5FFE8E738BD00BF7C3A002038B504467E
:107AB40090F84430022B02D07846FFF7DBFB054BED
:107AC4001D6803F073F8291804F12C0002F0FEFF7E
:107AD40038BD00BF643A002038B5044690F84430FD
:107AE400022B02D07846FFF7C5FB084B5D7D5A6830
:107AF4009B6803FB052503F059F8411904F14C0078
:107B040002F0E4FF012384F8643038BD643A0020B5
:107B140010B504460D4B1B68806E984704F12C0089
:107B240002F0BCFF94F84430022B0AD06C220021EE
:107B3400204618F0CDFA002084F8440002F078F8CA
:107B440010BD04F14C0002F0A9FFEFE71C3A00203D
:107B540010B504460121FFF7C3FD2046FFF7D8FF07
:107B640010BD10B58CB0044690F84430012B02D0FF
:107B74007846FFF77FFB01238DF80430236D0293D1
:107B840001A800F075FE2046FFF7C2FF0CB010BD3F
:107B94002DE9F04104460D4616461F46531EDBB23E
:107BA400012B02D97846FFF765FBA36E13B1784623
:107BB400FFF760FB2C4B1B6838469847A0660028EB
:107BC4004ED02B46224605F12001D3F80080D3F88D
:107BD40004C0D3F808E0D868C2F80080C2F804C032
:107BE400C2F808E0D060103310328B42EDD118682F
:107BF40059689B681060516093600023A364A4F8E3
:107C04004670A988A869FFF7C1FBA061012E13D0B3
:107C14006FF00103A362002384F86430134B63659F
:107C2400E465134B6363E463012002F001F884F814
:107C340044600120BDE8F0810E4B1B7D84F84D307B
:107C4400002384F84E3084F84F3084F84C30AB6A0B
:107C540023656FF00103A362074B6363E463E3E707
:107C64000020BDE8F08100BF143A0020BB87020069
:107C7400A57D0200643A0020B17D020030B583B0D6
:107C8400C5790135C27DF2B1082305FB03F5E2B1E4
:107C94004FF48073AB4228D21E4B1B6813F0040FC1
:107CA40034D01D4B1B68002B32DD1C4BD3F804353C
:107CB40001951B4A009240F263221A49012004F004
:107CC400F1FC00241FE00C23DFE74FF4C073E1E76D
:107CD4006C23154C03FB02442B460222014620462A
:107CE400FFF756FF78B900240DE00022032A09DCCF
:107CF4006C240D4B04FB023494F84430002BE7D081
:107D04000132F3E70024204603B030BD0024FAE733
:107D14000024F8E7383300203433002000B000405A
:107D240014080400050804007C3A002030B585B02E
:107D34000D460446A8B100212046FFF7D1FC294690
:107D4400206DFFF7A3FC2046FFF7E2FE0F4B1B68F4
:107D540013F0040F03D00E4B1B68032B05DC05B096
:107D640030BD7846FFF786FAE5E70A4BD3F80435C9
:107D740094F8442002950192074A00924FF4D67277
:107D84000649042004F08EFCE9E700BF38330020E4
:107D94003433002000B000406407040005080400E8
:107DA40008B508460021FFF7C1FF08BD10B50C4611
:107DB40091F84430012B02D07846FFF75BFA94F82F
:107DC4004D305BB9237B012B03D02046FFF7C9FE5E
:107DD40010BD01212046FFF7A9FF10BD013B84F827
:107DE4004D30002384F84C302046FFF7D2FD10BDFF
:107DF400062900D0704770B582B003460178890126
:107E040001F4FE5140789D78DC78240444EA05644A
:107E14001D7944EA05245B791C4341EA900110462C
:107E2400FFF716FB0546B8B1866C2643866444B357
:107E3400037853B3EB795A1C01239340013B9E42D0
:107E440027D0002385F84C302846FFF7A2FD2846AA
:107E5400FFF7ECFD02B070BD104B1B6813F0040F6C
:107E6400F8D00F4B1B68012BF4DD0E4BD3F804350F
:107E74000D4A009240F2B9420C49022004F012FC6F
:107E8400E8E70321FFF752FFE4E77846FFF7F2F94A
:107E9400D0E72846FFF765FEDCE700BF3833002053
:107EA4003433002000B00040280804000508040012
:107EB4002DE9F04389B080460F4614461E46957856
:107EC4000DB32846FFF794FB8146C8B18DF80050E6
:107ED400236A0693A38AADF80E3004AB04F10C02B6
:107EE40092E8030083E80300A37D8DF81C30CDF8ED
:107EF4000480029723788DF80C3031466846C847D1
:107F040009B0BDE8F083FFF773FFF9E700B585B06A
:107F140000238DF80F3098B10346084602330B60F6
:107F24000DF10F0103F027FC9DF80F3043B10D4B09
:107F34001B6813F0040F03D00B4B1B68032B04DCEA
:107F44009DF80F0005B05DF804FB084BD3F8043529
:107F5400074A009240F2EB220649042004F0A2FBF7
:107F6400EEE700BF383300203433002000B0004077
:107F740068080400050804002DE9F0438FB00446A6
:107F84000E4615461F46D0F81890037823B1818811
:107F94004846FFF7FBF9A06104F10C00A378002B1D
:107FA4003AD0012162780DF128084346082A14BF0B
:107FB4000022012203F0E3FBC4F81890CDF80880F6
:107FC40003966378EA1A92B2ADF81020324408920C
:107FD40007978DF824300023ADF81830237B022B4B
:107FE4001CD0A3786BB3237B022B1BD02546002324
:107FF40045F8243F2A46E178206A0DF013FE606AB2
:1080040098B101A9FFF782FF00283CD12A46E17804
:10801400206A0DF007FEF2E70221C3E71023ADF852
:108024001830DEE723690593E0E7237B022B2ED18A
:1080340004F10C01E0890DF0A3FE0028D3D1052042
:1080440022E000236362237B012B0DD02146002311
:1080540041F8243FA08A0DF002FE01A9606AFFF7EF
:1080640055FF70B905200FE004F12401E0890DF0FB
:10807400F6FD01A9606AFFF749FF0028E6D0002059
:1080840002E0002000E000200FB0BDE8F0830520EE
:10809400FAE7000070B5F0B00D4614461E4610AB6A
:1080A4000A4601462046FFF767FF50B11F4B1B6885
:1080B40013F0040F03D01E4B1B68052B2ADC70B091
:1080C40070BD03AB01228DF80C20A28AADF80E20FE
:1080D400002204928DF8142010AA06926278AD1A38
:1080E400ADF81C5008AA93E8030082E803000AAB29
:1080F40004F10C0292E8030083E80300A37D8DF8E9
:108104003830236A0C93636A0D930F9605A800F028
:10811400AFFBD4E7074BD3F80435074A00924FF47A
:10812400A5620649062004F0BDFAC8E738330020EA
:108134003433002000B000408C080400050804001B
:1081440010B5D47D14B9FFF7A5FF10BDFFF7B0FE3D
:1081540010BD00002DE9F04385B004AF437813440B
:10816400C47D44B14FF480749C4207D20920043783
:10817400BD46BDE8F0834FF4C074F5E7EFF3108E0D
:1081840072B60024032C0DDC6C25374E05FB046508
:1081940095F844500DB10134F4E76C26324D06FBDA
:1081A400045400E00024BEF1000F00D162B6002C9C
:1081B40057D015460E46014601222046FFF7E8FC3B
:1081C40008B90420D3E72A463146A06E17F056FFBB
:1081D400264B1B6813F0040F03D0254B1B68032B9D
:1081E40007DC2046FFF7D5FB2046FFF71FFC0020E5
:1081F400BDE76D46B4F846C04FEA4C03083323F09C
:108204000703ADEB030D0DF11008C646002312E081
:10821400A26ED25C59004FEA12191648066816F885
:1082240009600EF81360013102F00F020068825CED
:108234000EF8012001336345EAD3002308F81C300B
:108244000D4BD3F80435CDF808800C4A01920C4A42
:10825400009240F2F7320B49042004F023FAAD46B1
:10826400BFE7042083E700BF7C3A002038330020B6
:10827400343300203C33002000B000405808040090
:10828400700504000508040070B504460D46164642
:10829400808A01F097FF012801D0102070BD237B54
:1082A4000BB9102070BD022B0BD094F91630002BA3
:1082B40012DB237853B9324629462046FFF785FB63
:1082C40070BD2369002BF0D1102070BD32462946C1
:1082D4002046FFF73FFF70BD072070BD08B5054974
:1082E400054800F04FF800B908BD7846FEF7C2FF14
:1082F400FAE700BF41FF0300A9FE030010B5FFF732
:10830400EDFF4FF4D8720021134817F0E1FE05F099
:1083140065FB0024114B1C6040222146104817F0D5
:10832400D7FE104B104A1A60104A5A604CF2503271
:108334009A600F49D9601A6104221A759C75082243
:108344005A750C4803F0B6F80B4B18600B4B1C60C5
:108354000B4805F047FC10BD7C3A0020603A002031
:10836400203A0020643A002080969800F0490200E8
:1083740020A107006D850200183A0020083A002069
:10838400B976020008B50346B0FA80F040090A46FF
:10839400B1FA81F14909884201D00E2008BD4BB1E0
:1083A400EFF3108072B607490B60074B1A6038B9B7
:1083B40062B608BD002AF3D1FFF790FF002008BD84
:1083C400002008BD143A00201C3A0020A8B110B5C2
:1083D4008CB0044603699BB1C369ABB18369ABB18B
:1083E400014601A8FFF782F8034650B9A28A216921
:1083F40001A8FFF749FF034603E00E231846704720
:108404000E2318460CB010BD0E23FAE70E23F8E72E
:10841400E8B110B58CB004464068D0B1A069D8B1B9
:10842400227C022A1AD00AB9102013E094F9002001
:10843400002A01DA07200DE00A46214601A8FFF7C9
:10844400A9F8A268616801A8FFF71EFF02E00E20E8
:1084540070470E200CB010BD0E20FBE71020F9E78A
:10846400037B012B01D00020704710B58AB0002295
:108474008388C3F386148DF800409B008DF8013087
:108484000B0E8DF802300B0C8DF803300B0A8DF8AF
:1084940004308DF805100623049301238DF8183059
:1084A400838AADF81A3007928DF80820CDF80CD0E5
:1084B400036A08938DF81420C389ADF81630837DC0
:1084C40043B98DF824206FF0010102A8FFF7A0FF43
:1084D4000AB010BD024B5B7D8DF82430F3E700BF7A
:1084E400643A002038B500240BE06C231D4A03FBDA
:1084F4000423DB795A1C01239340013B9D4228D07D
:108504000134032C2CD86C23164A03FB042393F860
:108514004430022BF4D16C2303FB042393F864301E
:10852400022BEDD16C2000FB0420816CFFF798FF37
:108534000028E5D10B4A6C2303FB04F3D11881F81E
:1085440064008D6CD35C002BCFD17846FEF792FE8D
:10855400CBE76C20034B00FB0430FFF7F9FACFE7BD
:1085640038BD00BF7C3A002008B5FFF781FAFFF759
:10857400B9FF012008BD00002DE9F04182B0074693
:108584000E46144698461046FEF78CFF054620B169
:10859400A28883889A4210D312D82046FFF7C6F8DF
:1085A400B8B103784BB123787BB1E1794B1C01213D
:1085B400994001392046FFF753FF02B0BDE8F0812E
:1085C4000521FFF7B3FB0025E7E77846FEF752FEE7
:1085D400EBE7002D4FD0464B1B6813F0040F03D07C
:1085E400444B1B68032B55DC2846FFF75FFA2B7BB3
:1085F400012B5DD0AA6CA17901238B401A42DCD1F6
:108604001343AB64A279EB799A4259D0E37D002BF2
:1086140061D00823B34260D1AB6EA079E27D002A19
:1086240060D008243246394600FB043017F026FD9A
:10863400AC6C2B78002B57D0EB795A1C0123934058
:10864400013B9C42B9D1022385F86430A96C2846C9
:10865400FFF706FF044643462A46B5F84610A86EBF
:10866400FFF76EFD002CA8D1002385F8643028465E
:10867400FFF76EFAA1E72046FFF700FB0546002846
:10868400A9D100212046FFF7EBFE02210020FEF7CE
:10869400FDFF92E7184BD3F80435A2790192174AEB
:1086A400009240F2A7221649042003F0FBFF9BE747
:1086B40095F86430002B9DD12846FFF70DFA99E711
:1086C4009BB2E27D2AB1082202FB0363A5F846307F
:1086D400A2E70C22F8E70C239CE704212846FFF7C5
:1086E40025FB6AE70C249DE77846FEF7C3FDA3E764
:1086F400383300203433002000B000407C080400EC
:10870400050804002DE9F0418EB000284CD08046C5
:10871400002A4BD01F4614460E4600230C930D939B
:108724000CA950880DF02CFB08B900253FE0226904
:1087340002F00102E168208905F01CF908B1002566
:1087440035E0226902F00102E168208905F0DEF8D3
:108754000546C8B901AA21464046FFF717F804ABFD
:108764000EAA12E9030083E8030002F061FE9DF8FB
:1087740004308BB13B4601AA311F08F10400FFF716
:10878400FBFE02F075FE12E02169002201F00101F6
:108794002089FEF75FFF0AE03B4601AA711E08F13B
:1087A4000100FFF7CDFCECE70E2500E00E2528467E
:1087B4000EB0BDE8F08110B50C4691F84430022BA0
:1087C40002D07846FEF756FD022384F86430A16C8B
:1087D4002046FFF745FE10B9002384F8643010BD2D
:1087E400F8B518B30546164B1F6817B10427384669
:1087F400F8BD0E463C46B4420ED205EBC4035B689A
:10880400B3B115F8340010F0800F13D1A0B1FEF706
:10881400EFFE98B90134EEE70A4B43F8375003EB07
:10882400C7035E607B1C064A1360E0E70E27DEE7A1
:108834000E27DCE70B27DAE70F27D8E70F27D6E761
:10884400083A00200C3A0020084B196861B110B5B1
:1088540001E021463CB10C680B79002BF9D00348A8
:1088640003F085FEF5E710BD704700BF303C0020E3
:1088740038B5054630B1104B1C68ACB101220F4B22
:108884001A7004E07846FEF7F5FCF4E724683CB17E
:108894002379002BFAD154F8043C28469847F5E78D
:1088A400064B1B78022B00D038BDFFF7CDFF00220A
:1088B400024B1A70F8E700BF303C00202C3C00202B
:1088C40010B5044630B100232372211D034803F080
:1088D40023FE10BD7846FEF7CDFCF4E7303C0020C3
:1088E40010B5044650B10A4B1B78013BDBB2012B97
:1088F40008D9211D074803F03AFE10BD7846FEF75B
:10890400B9FCF0E70222024B1A700123237210BD56
:108914002C3C0020303C00200A8883689B5A073393
:108924009BB223F0030313449BB20288043A93429C
:1089340000D900230B80704710B582B004468368C9
:10894400CB1A02A921F8023DFFF7E6FFBDF8063075
:10895400A068184402B010BD0088043880B2704783
:1089640043888268D018D15201238370704782688B
:1089740000239370438083807047073189B221F0CC
:10898400030189B2428883889A4206D29B1A99428B
:1089940001DD042070470020704710B59A4211D9B8
:1089A4000488A41A8C4217D2994201D9042010BD1C
:1089B400032C03D98368134404229A700023438050
:1089C400184610BD826813449B780BB1042010BD77
:1089D400FFF7CDFF002010BD002010BD38B50446C0
:1089E4000D468368828813448B4202D07846FEF792
:1089F40041FC0023AB70211D2046FFF78DFFA288A8
:108A0400A36813449B78042B00D038BD0023A380B3
:108A1400FBE710B50C468368428813448B4202D0AE
:108A24007846FEF727FC0023A37010BD70B50646F8
:108A340015460C46002944D0002E46D0B4F1005F00
:108A440008D94FF08053D3F80C3103F50023B4EB6D
:108A5400832F0ED3B4F5000F08D94FF08053D3F809
:108A64000C3103F50053B4EB832F02D37846FEF7A1
:108A740001FC6B1E2344B3F1005F08D94FF0805210
:108A8400D2F80C2102F50022B3EB822F0ED3B3F5FA
:108A9400000F08D94FF08052D2F80C2102F5005291
:108AA400B3EB822F02D37846FEF7E4FB042D10D9F2
:108AB400358000237380B380B460043D2580A370A7
:108AC40070BD7846FEF7D6FBB6E77846FEF7D2FBD4
:108AD400B4E77846FEF7CEFBEAE738B50446A0B122
:108AE4006288A36813449B78012B12D0A388A168E1
:108AF4001944EFF3108572B68B78032B0DD0204602
:108B0400FFF735FF05B962B638BD7846FEF7B2FB0C
:108B1400E6E77846FEF7AEFBE8E72046FFF70CFFF2
:108B2400A368C31A638000238370EBE7F8B50E468D
:108B34001546044650B16EB16288A36813449B780D
:108B4400012B0BD075B909273846F8BD7846FEF7D6
:108B540091FBF0E77846FEF78DFBEDE77846FEF7EC
:108B640089FBEFE72046FFF7F7FE854201D9092785
:108B7400EAE729462046FFF700FF07460028E3D12D
:108B840029462046FFF7ECFE3060DDE770B50C4661
:108B940016460546D0B1ECB1A378012B02D0784635
:108BA400FEF768FB2388B34218D3DEB12680022384
:108BB400A370E9182846FFF7AFFE6A88AB889A428B
:108BC40003D0AB68134400229A7070BD7846FEF758
:108BD40051FBE0E77846FEF74DFBDDE77846FEF70C
:108BE40049FBE2E77846FEF745FBDFE738B50D467B
:108BF400044668B185B1A288A36813449A78042A0C
:108C04000ED09A78022A13D0032A16D0052038BD34
:108C14007846FEF72FFBEDE77846FEF72BFBEAE7F5
:108C2400211D2046FFF778FEA288A3681344E8E7D5
:108C340003229A702B60002038BD7846FEF71AFB99
:108C4400002038BD10B5044658B1A088A16801447D
:108C54008B78042B09D08878022814BF00200120C7
:108C640010BD7846FEF706FBEFE72046FFF764FEEB
:108C74000146F0E710B5044618B1A088A168014484
:108C840007E07846FEF7F6FAF7E72046FFF754FECA
:108C940001468878C31EDBB2012BF6D9022814BF23
:108CA4000020012010BD38B50C46054650B16CB10A
:108CB400A378012B0ED0032B11D121462846FFF7B0
:108CC4008DFE38BD7846FEF7D5FAF0E77846FEF714
:108CD400D1FAEDE721462846FFF79BFE38BD7846DA
:108CE400FEF7C8FA38BD000008B5064B98680022A4
:108CF4001A605A609A60DA601A615A619A6104F0E3
:108D040057FC08BD343C002000B585B00A4BDB6835
:108D140002228DF8002001934FF480530293074AF6
:108D24006946012001F0AEF918B1002005B05DF8E4
:108D340004FB0120FAE700BF343C0020503C002033
:108D440000B585B00A4B1B6802228DF80020019300
:108D54004FF480530293074A6946012001F092F9C7
:108D640018B1002005B05DF804FB0120FAE700BF4C
:108D7400543C0020503C0020154BDA68137951799B
:108D84005B1A03F57F2303F6FF731B0305D002F57B
:108D940080520F4BDA600320704700B585B00D4B4D
:108DA4001B6801208DF8000001930B4B03930423EF
:108DB40002930A4A694601F065F930B90122044B6D
:108DC4001A76022005B05DF804FB0020FAE700BF24
:108DD400343C0020543C0020583C0020503C0020EF
:108DE40000B585B00C4BDA680C4B1B6804330120CA
:108DF4008DF800000192039340F6FC730293084A35
:108E0400694601F03FF928B90120034B187605B0F3
:108E14005DF804FB0020FAE7343C0020543C0020B9
:108E2400503C002000B585B00A4B1B6801208DF82A
:108E340000000193084B039304230293074A6946F5
:108E440001F020F918B1002005B05DF804FB012001
:108E5400FAE700BF543C0020403C0020503C002076
:108E640010B584B0114BDA681478114B1B680433C5
:108E740001208DF800000193039202940D4A694683
:108E840001F000F980B90A4B1B6804F0FC041C448F
:108E94000434064B5C61D9680A780A441A610022DA
:108EA4005A76012004B010BD0020FBE7343C0020BA
:108EB400543C0020503C002008B50023092B09D85D
:108EC400064A52F82320824201D00133F6E7044ACD
:108ED400536008BD7846FEF7CDF908BDB808040014
:108EE400343C002010B5214BDB6853B11F4B1B7E73
:108EF4005BB91E4B5B68092B15D97846FEF7BAF9A6
:108F040011E07846FEF7B6F9F0E77846FEF7B2F9D5
:108F1400EFE70022154B5A60012C01D0032C23D11A
:108F2400124B1B7E03BB114B5A68114B53F8223072
:108F34009847044602280DD00328EAD00128EBD133
:108F44000A4A536801335360092BE5D97846FEF782
:108F540091F9E1E7054B1B7E1BB10222034B1A700A
:108F6400DAE7FFF7C1FED7E710BD00BF343C0020AD
:108F7400B8080400104B1B681B685A1E12F1030F3B
:108F840018D8C3F30B020AB10020704710B50B4A7E
:108F9400D360002313765376012414709360084839
:108FA400FFF78AFF0749204601F05AF8FFF79AFFB6
:108FB400204610BD00207047543C0020343C002063
:108FC4000D8D0200CD8F020008B50B78032B06D05F
:108FD4000B4B1B78012B06D0022B0BD008BD0022B3
:108FE400074B1A76F4E7064B1B7E002BF6D1FFF7EE
:108FF40079FF08BD0B78032BF0D1FFF775FEEDE781
:10900400343C002000B585B0174BDB6818784FF668
:10901400FF7203F58051184404F09AFDF0B1024642
:10902400114BD9680B780B44984219D00E4B5B7ED8
:1090340093B10E4B01208DF8000001920393042399
:1090440002930B4A694601F01DF858B90120064BFA
:10905400187605B05DF804FB064BEBE70120F8E752
:109064000120F6E70020F4E7343C0020C00B0400A4
:10907400503C0020BC0B040008B50F4BDB6818788B
:10908400002203F58051184404F062FD08B1012068
:1090940008BD094BDA68137951795B1A03F57F230C
:1090A40003F6FF731B0305D002F58052024BDA600E
:1090B400032008BD022008BD343C0020F0B585B073
:1090C400524BDD686A792B79591E8A4200F09780E9
:1090D40005F580510C780C444D490968081D0E793A
:1090E40006449B1A03F57F2303F6FF731B0303F562
:1090F40080531D446388013B9BB247F6FE62934252
:109104005CD927461BE0002458E0002456E078464A
:10911400FEF7B0F816E027F47F6323F00F0303F59E
:1091240080531A7813449D42EDD99C42EDD25A885B
:10913400013A92B21F4647F6FE618A4210D93B8833
:10914400002BE4D03B8807EB830323F47F6222F0F7
:109154000F029342DFD07A88B2F5FE4FE3D1DAE70B
:109164001C462BE07846FEF785F816E027F47F636B
:1091740023F00F0303F580531A7813449D421CD93E
:109184009C4237D25A88013A92B21F4647F6FE6192
:109194008A4210D93B88002BE4D03B8807EB830339
:1091A40023F47F6222F00F029342DFD07A88B2F573
:1091B400FE4FE3D1DAE71C4600E00024E4B1144B8F
:1091C4001968628801F58051304604F0C1FC0646F6
:1091D400B8B101200D4B18768DF8000001940D4BA9
:1091E4000393042302930C4A694600F04BFF50B9E1
:1091F4002746CFE70024E1E7012005B0F0BD0120B8
:10920400FBE70120F9E70020F7E700BF343C00202A
:10921400543C0020B80B0400503C00202DE9F041E0
:1092240086B06C4B1B6923B16A4B5B692BB1002779
:1092340049E07846FEF71EF8F6E77846FEF71AF896
:10924400F5E77846FEF716F817E028F47F6323F075
:109254000F0303F580531A7813449D421FD99C428F
:1092640021D25A88013A92B2984647F6FE618A4260
:1092740013D9B8F80030002BE3D0B8F8003008EB6D
:10928400830323F47F6222F00F029342DDD0B8F807
:109294000220B2F5FE4FE0D1D7E71C4600E00024DF
:1092A4001CB1009443E00024FAE700230093019BDF
:1092B400002B65D10127002C00F08180628847F6DD
:1092C400FF739A427BD0434B5B7E002B7DD1002FF2
:1092D40079D1404B5A6922F47F6626F00F06B61AFC
:1092E40006F580561C69DD682B796A799B1A03F5AB
:1092F4007F2303F6FF731B0303F580531D440023F0
:1093040001936388013B9BB247F6FE629342C8D93E
:10931400A046AEE77846FDF7ADFF23E024F47F6472
:1093240024F00F0404F58054237823441C46A542FA
:10933400BDD92388019A02EB83029642B7D9009BD8
:10934400634023F47F6323F00F03002BAFD16388C2
:10935400013B9BB247F6FE618B42A8D80192238859
:10936400002BD7D0238804EB830323F47F6222F0FD
:109374000F029342D2D06288B2F5FE4FD6D1CDE728
:10938400144A526901208DF808000392009A05924C
:109394000493114A02A900F075FE70B90D49019BAE
:1093A40023F003024B6913444B6114B1094B1C6154
:1093B40081E77846FDF75EFFF8E7002006E001222A
:1093C400044B5A767FE7012000E0012006B0BDE897
:1093D400F08100BF343C0020503C002008B54FF021
:1093E40010235B69B3F1FF3F03D04FF010235B6997
:1093F40063B94FF080525169136903FB01F3A3F57C
:109404008053054A1360FFF7B5FD08BD4FF01023E4
:109414005B69A3F58053F2E7543C0020024B1878B3
:10942400003018BF01207047343C002010B50446BA
:109434000E4B1B78ABB92378032B02D07846FDF78B
:1094440019FF0A4B9C60E268DA6000225A601A76BF
:10945400012018705A76064900F002FEFFF742FD1B
:1094640010BD7846FDF706FFE5E700BF343C002059
:10947400CD8F0200014B1868704700BF543C002098
:1094840010B5044680B163681BB123680BB1A368AF
:1094940013B97846FDF7EEFEA3685A1E134207D1AE
:1094A4000023E360236110BD7846FDF7E3FEEAE79D
:1094B4007846FDF7DFFEF3E7F8B510B3044611B3C1
:1094C400826812B909252846F8BDEFF3108572B6F3
:1094D400026980680244E668B2420ED02768636875
:1094E400013830401A4600FB037016F0C7FDE368EC
:1094F4000133E3605DB962B6E5E735B962B60425C8
:10950400E1E70E25DFE70E25DDE70425DBE700258F
:10951400D9E770B508B30446826812B9092528460C
:1095240070BDEFF3108572B60669C268964210D01A
:10953400084621686268A368013B1E4006FB0211CD
:1095440008B116F09BFD2369013323614DB962B65E
:10955400E5E725B962B60525E1E70E25DFE7052530
:10956400DDE70025DBE70000C0F30B030BB110209F
:10957400704709B90920704701F6FF71090B0222EF
:10958400104BC3F804250F4BD3F80034002BFAD04A
:1095940000220AE00B4BC3F808050A4BD3F8003449
:1095A400002BFAD000F5805001328A42F2D3002217
:1095B400044BC3F80425034BD3F80034002BFAD032
:1095C4000020704700E0014010F0030F02D0102388
:1095D4001846704711F0030F01D01023F8E70AB9B9
:1095E4000923F5E712F0030F01D00923F0E710B4C3
:1095F40093080124124AC2F80445114AD2F80024FF
:10960400002AFAD002E00430043113465A1E53B142
:109614000B68B3F1FF3FF6D00360094BD3F8003475
:10962400002BFAD0EFE70021054AC2F80415044ADA
:10963400D2F80024002AFAD018465DF8044B70478B
:1096440000E0014001800023438042607047000035
:1096540038B5124C4FF480552A460021204616F0A6
:1096640037FD0F4B1C600AE0002228212046FFF73B
:10967400E9FF2388083323446360303D1C46502DA2
:10968400F2D8083D05D00022A9B22046FFF7DAFF40
:1096940038BD7846FDF7EEFDF5E700BF5C3C0020E1
:1096A4005C4C002008B508220221084803F0FEFDA6
:1096B40038B1074A91684160127B027203F02EFEB2
:1096C40008BD044803F04CFF08BD00BF684C0020EF
:1096D400B44C0020F83200200E4B1B78CBB910B5E7
:1096E4000D4B5C6804F50054B4F1807F00D910BDC3
:1096F40004220121094803F0D9FD30B1446001215D
:10970400044A117003F00AFEF1E7054803F028FF4C
:1097140010BD7047C84C0020B44C0020684C002099
:10972400E832002010B5044608B1A04710BD7846C1
:10973400FDF7A0FDF9E7000008B501210C4803F08E
:1097440015FE20B902210A4803F010FE28B1094889
:1097540003F006FFFFF7C0FF08BD074A00231360AC
:1097640053609360D3601361044A1370F2E700BF3F
:10977400684C002018330020B44C00208C4C00208E
:1097840000B58DB004918DF8082003900CA8022335
:1097940000F82C3DFFF76CF80DB05DF804FB0000F9
:1097A40010B58CB00C4682B94B88012B23D1134BD6
:1097B4001B7833B16268124B5A6000220F4B1A7047
:1097C40019E07846FDF756FDF4E7032A02D07846FF
:1097D400FDF750FD2C22002101A816F079FC10237E
:1097E4008DF804300394074BDA6805921B690693DD
:1097F40001A8FFF73DF80CB010BD00BFC84C002015
:10980400B44C0020684C002038B503F0C1FE28B9E0
:1098140001F0D8FE0028F8D020BFF6E701F008FEDA
:10982400002211461A4803F098FC00252C4605E056
:10983400051D02460021164803F08FFC30B1438811
:10984400012BF5D0022BF4D1041DF2E7A4B19DB194
:109854002268104B9A6022791A73AC4201D9237999
:1098640093B12A680B4B1A600A4B1A685A60FFF7C7
:1098740033FF01F0FDFD38BD064B00221A609A60EB
:109884001A73FFF70FFFEFE70022024B1A60EBE7B2
:10989400684C0020B44C002008B503F0BBFEA0F5D2
:1098A400805008BD00B587B0002300930193029354
:1098B400039304930593FFF7EFFF009001230193B3
:1098C400064B03936946064803F004FE10B907B03B
:1098D4005DF804FB034803F043FEF8E7A597020094
:1098E400684C00200833002010B50B4B00241C608A
:1098F4005C609C60DC601C6101F058F9074B5860A7
:10990400074A9A60074ADA601C615C61064B1C7066
:10991400FFF7C8FF10BD00BFB44C0020904C0020DE
:10992400659A020000879303C94C002008B5084BD0
:109934001B7803B108BD0748074B036000F016FE0F
:10994400064801F085F80122014B1A70F2E700BFC6
:10995400644C0020A84C0020999B0200904C0020ED
:1099640038B501F065FD174B1B7B23B1082401F0CA
:109974007FFD204638BD134B9B7B0BB10824F6E7D3
:10998400104B1A8A41F282639A4204D80E4B1B7818
:109994002BB1012300E001231BB90824E7E70023CE
:1099A400FAE7084D01232B7300242C82AB680133A2
:1099B400AB60FFF777FEA9682A7B01392046FFF7E1
:1099C400DFFED4E7B44C0020C94C002010B501F0F0
:1099D4002FFD214B5B7B9BB11F4B9B7BF3B91E4B34
:1099E4001A8A41F282639A4204D81C4B1B782BB129
:1099F400012300E001239BB1012302E00023FAE7E5
:109A040000231C461BB3144B00225A731B7B4BB11F
:109A1400012B0ED07846FDF72DFC18E00023F0E76B
:109A24000023EEE7FFF79CFF88B17846FDF722FCA0
:109A34000DE0094B00201860586018731882024624
:109A44009968FFF79DFEFFF72DFEFFF745FE01F035
:109A54000FFD204610BD00BFB44C0020C94C0020AF
:109A640010B5234B1B7B8BB1012B24D07846FDF71B
:109A740001FC01241CB11E4A138A013313821C4BBE
:109A84005B8A13B1013B1A4A538210BD184B1A8AE0
:109A940041F282639A4204D8164B1B782BB10123FE
:109AA40000E001231BB90124E4E70023FAE7FFF7F0
:109AB4008DFF0024DEE70E4B1A8A41F282639A423C
:109AC40004D80C4B1B787BB1012300E001231C4616
:109AD40063B142F2B0139A4203D90122044B5A7380
:109AE4000024FFF773FFC5E70023F0E70124C1E773
:109AF400B44C0020C94C002038B5254B1B7B002BEF
:109B040036D10446224B5B8A33BB1AB9204B9B687F
:109B14008B4205D302B31E4B9B68013399421BD978
:109B24001B4B9B682A33994224D8194B9B7B0BBB54
:109B3400174DA9602B606B602B8242F606526A8235
:109B44006B732B73FFF7AEFDFFF7C6FD2A7BA96885
:109B54002046FFF715FE38BD62B10D4B9B680133FB
:109B6400994207D101220A4B5A73FFF72FFF38BDE0
:109B7400012B00D038BD002AFCD1054B9B689942CB
:109B8400F8D10122024B5A73FFF720FFF2E700BF1E
:109B9400B44C00200378042B00D0704743681B7832
:109BA400002BFAD010B58468027E437E012A14BFCC
:109BB40000220122416904F11000FFF79DFF10BD4E
:109BC40010B5184B1A685B689A4225D20446154BA7
:109BD4001B7B012B15D0144B934214D9002028B9B8
:109BE400104B1A685B68403B9A4212D2EFF3108024
:109BF40072B60C4A1368591C1160236080B962B6AE
:109C040010BD0A4BE8E70122064B5A73FFF7DEFE4C
:109C1400E5E7FFF761FDE9E7FFF75EFD0F2010BD03
:109C2400002010BDB44C0020FFFF7F0000E0FF00C7
:109C340008B540B90D4B1B686BB10C4A1368013B66
:109C4400136063B108BD0122094B9A73074A136874
:109C54000133136008BD7846FDF70CFBEDE70022E5
:109C6400034B9A73FFF7B2FEECE700BF604C002091
:109C7400B44C002000B58DB0ADF808008DF810206C
:109C840003910CA8032300F82C3DFEF7F1FD0DB061
:109C94005DF804FB014B9868704700BFB44C00208A
:109CA400054B1B7B012B02D0034B98687047024B7A
:109CB40098680138704700BFB44C0020044B9B687F
:109CC400584010F0010F00D0013B1846704700BF08
:109CD400B44C0020014B187B704700BFB44C0020EB
:109CE40038B50A4B1B780BB1082038BD0122074B4D
:109CF4001A70074DA8602973FFF7D4FC00242C6068
:109D04006C60FFF7E9FC204638BD00BF8C4C002096
:109D1400B44C00202DE9F041002722E02449BC2363
:109D240003FB04F3CA5A0132CA520221404602F02C
:109D340065FA01360221404602F030FA70B1BC23C4
:109D44001B4A03FB04239D68002DE7D0BC2303FBBF
:109D540004F3D25A01463846A847DFE796B90137DB
:109D6400FFB2022F20D83C46BC2303FB07F3083381
:109D74000F4D1D4405F104080221404602F00EFA7D
:109D84000026DBE70021404602F0A0FA0828E6D1CD
:109D9400BC22074B02FB0434A368002BDFD0002253
:109DA400044938469847DAE70120BDE8F08100BF4E
:109DB400D44C0020E008040008B508238373102362
:109DC400437300F11C0343610323037300F118037D
:109DD40003610C3002F04CFA08BD000008B50378AA
:109DE400012B06D0022B07D07846FDF743FA00205A
:109DF40008BD4FF4A97008BD004808BD645E0100A9
:109E040008B50278012A07D0022A13D07846FDF754
:109E140031FA4FF4FA7308E083685B1A98084FF438
:109E2400A97303FB00F303F5FA730748984228BFAC
:109E3400184608BD83685B1A180B044B03FB00F338
:109E440003F5FA73F1E700BFA0860100645E010028
:109E540010B5044601210C3002F0A0F9A0B10D4A5E
:109E6400C4F89C200022C4F8A0206168FFF7C8FF52
:109E7400C4F8A800C4F8AC40012384F8B83004F155
:109E84009C000CF0C5FC00B910BD7846FDF7F2F952
:109E9400FAE700BF919F0200F8B506460C46174644
:109EA40015680378012B02D07846FDF7E3F91049D1
:109EB400A1FB0431C9098900B468641BA14200D81C
:109EC4000C466CB1706825F00305F16822462944FC
:109ED4002844FFF779FB38B93B681C443C60F8BD63
:109EE4007846FDF7C7F9EDE77846FDF7C3F9F3E7E0
:109EF400EB5DF260F8B507460C4616461568037824
:109F0400022B02D07846FDF7B5F90F4BA3FB0423CF
:109F14001B0C1B03BC68641BA34200D81C465CB129
:109F2400786825F0030521462844FFF71DFB38B95E
:109F340033681C443460F8BD7846FDF79BF9EFE7BD
:109F44007846FDF797F9F3E7B77609BB38B50546C8
:109F54000C4611462378012B06D0022B0FD07846ED
:109F6400FDF788F9002004E0021D2046FFF794FF66
:109F7400A0686B68984214BF0020012038BD021D00
:109F84002046FFF7B7FFA068F3E700002DE9F84388
:109F94008846D1F8A850244B1B7863B90646A5F52A
:109FA400FA7501F10C090121484602F0F7F8074659
:109FB40040B1002424E00CF067FC002388F8B8309A
:109FC400BDE8F8837846FDF755F9F2E70CF05CFC40
:109FD4000121484602F012F90023C8F8043088F839
:109FE400B830124B186801F085FA4046FFF730FF8D
:109FF400BDE8F8833846FFF7F1FE204485420CD3D0
:10A004002A1B39464046FFF7A1FF0028DED100F0A5
:10A01400CDFD841BEED5341AECE70CF035FC40463C
:10A02400FFF716FFBDE8F883D04C0020CC4C00208D
:10A0340010B5084801F03EFA074B1860002406E00A
:10A04400BC20064B00FB0430FFF7B6FE0134022CA3
:10A05400F6D910BD199D0200CC4C0020D44C002030
:10A0640038B504460D46022805D8BC22044B02FB31
:10A074000434A56038BD7846FDF7FCF8F5E700BF69
:10A08400D44C00202DE9F84306460C46904602289D
:10A0940046D8002C48D02378012B49D0022B66D017
:10A0A4007846FDF7E7F8EFF3108772B6BC2505FB99
:10A0B40006F505F10803414D1D44043500212846E9
:10A0C40002F06CF88146002870D00021284602F086
:10A0D40095F820686168A268E368C9F80000C9F8C7
:10A0E4000410C9F80820C9F80C30B8F1000F06D0E4
:10A0F400BC23324A03FB06235B88A8F80030BC2348
:10A104002E4A03FB06235A8801325A8093F8B8304A
:10A11400002B50D12A4B1B78002B3FD0002046E067
:10A124007846FDF7A7F8B4E77846FDF7A3F8B2E759
:10A13400636813F0030F0ED1E36813F0030F0ED11D
:10A14400A36813F0030F0ED1A368002BABD178469C
:10A15400FDF790F8A7E77846FDF78CF8ECE778462A
:10A16400FDF788F8ECE77846FDF784F8ECE76368D8
:10A17400C3F30B0353B9A368C3F30B0353B9A36825
:10A18400002B90D17846FDF775F88CE77846FDF7FB
:10A1940071F8F0E77846FDF76DF8F0E7BC20074B5F
:10A1A40000FB0630FFF754FE002000E0042007B94E
:10A1B40062B6BDE8F8830020F9E700BFD44C002064
:10A1C400D04C002018B1830B024AD05C70470020A9
:10A1D400704700BFF008040012DF704700B583B079
:10A1E4001378A3B1042B14D1072110F8013C163BBA
:10A1F400152B31D8DFE803F05930303030303030AF
:10A2040030303030303030303030302E0F3A517DF5
:10A21400EBE70021E9E7022901D007291CD110F856
:10A22400021C013901F04CFDB0B1264B1B6813F040
:10A23400400F11D0244B1B68012B0DDD234BD3F8A9
:10A2440004350190224A00928A222249022002F017
:10A2540029FA01E0022902D003B05DF804FB10F8EA
:10A26400021C0139C9B212F0CDFAF5E70229F3D183
:10A2740010F8021C0139C9B203F0DEFB0028EBD050
:10A28400104B1B6813F0400FE6D00F4B1B68012BDB
:10A29400E2DD0E4BD3F8043501900F4A00929D2263
:10A2A4000C49022002F0FEF9D6E701884FF6E46378
:10A2B4009942D1D110F8021C03390230FCF72AFF6D
:10A2C400CAE700BF383300203433002000B0004018
:10A2D400BC090400B1090400E809040070B58AB09F
:10A2E4000DF01CF8002834D0064600238DF81030F9
:10A2F40005AC05460FCD0FC42B682360727D052A7B
:10A304000DD9337D03F00F03072B08D0307D04AB48
:10A31400063A06F11D0100F00F000BF0D5FD134BBA
:10A324001B689BB104AB0393337DC3F303038DF824
:10A334000430737D062B13D9063B8DF8053006F1E6
:10A344001D030293094B1B6801A8984730460CF083
:10A35400C5FF0CF0FDFF80F00100C0B20AB070BD73
:10A3640000238DF805300293ECE700BF0C4F00206A
:10A3740070B582B02E4B1B781BB10824204602B066
:10A3840070BD002852D0067A0F2E03D0072E01D0BC
:10A394000724F3E70546C06870B1FCF77DFF0DF1B3
:10A3A4000700FFF719FF04460028E7D19DF807309E
:10A3B400012B04D00224E1E7FCF77CFFEFE7FCF774
:10A3C4008FFF00F033FB304600F0FAFFE87800F02E
:10A3D40051F900F003FF0CF0D9F916480DF054F8C8
:10A3E4000BF00CFFFFF724FE04F082FB00F04EFD9F
:10A3F40005F0C8F9284601F0CBFB2846FDF77EFF9F
:10A4040003F0E6FE2846FFF723F9FCF783FE18B1B4
:10A41400062801D00446B1E707480BF037FD0022B7
:10A42400064B1A600122024B1A70A7E70E24A5E717
:10A43400094F0020E1A20200283300200C4F002025
:10A4440030B583B0204B1B781BB90824204603B0D9
:10A4540030BD1E4B1B780BB10824F7E700F0E4FE77
:10A4640028BB0CF0B5F904460028EFD10CF0F6FE39
:10A4740001F0A0FBFCF74EFE0546E0B106281AD019
:10A48400134B1B6813F4804F19D0124B1B68012B1C
:10A4940017DD114BD3F804350190104A00924FF4A4
:10A4A400C4720F49022002F0FDF82C46CEE778462C
:10A4B400FCF7E0FED5E70122044B1A70C6E7044618
:10A4C400C4E70446C2E700BF094F0020084F00203C
:10A4D400383300203433002000B000400C0904005D
:10A4E400B109040010B5094B1B7813B908242046A0
:10A4F40010BD0CF07DF904460028F8D10CF0C4FE20
:10A5040000F0FCFE0022014B1A70F0E7084F002017
:10A5140030B583B004460D460E4B1B6813F4804FD0
:10A5240003D00D4B1B68062B05DC29462046FDF79E
:10A534004DFF03B030BD094BD3F80435084A0192EE
:10A54400084A00924FF4D7720749072002F0AAF88C
:10A55400EBE700BF383300203433002000B0004064
:10A56400F408040074050400B109040008B5FEF7FA
:10A57400A7F908BD08B500F005FE002008BD08B520
:10A5840006F0AAFC08BD0000064A136801331360F4
:10A59400B3F1704F02D0034B186870470122014B8E
:10A5A4001A60F8E7104F002010B5044618B10023D4
:10A5B4002360636010BD7846FCF75CFEF7E738B5AE
:10A5C4000C46054668B184B100236360EFF3108341
:10A5D40072B62A686AB16A6854606C6003B962B67C
:10A5E40038BD7846FCF746FEEDE77846FCF742FEB8
:10A5F400EAE72C60F1E710B5044658B1EFF3108395
:10A6040072B6206808B142682260226832B103B988
:10A6140062B610BD7846FCF72DFEEFE76260F6E700
:10A6240010B5044608B1206810BD7846FCF722FE38
:10A63400F9E735DF70473CDF7047000010B504468A
:10A644004FF0FF30FFF7F5FF4FF0FF312046FFF7E3
:10A65400F2FFBFF34F8F0549CA6802F4E062044B6E
:10A664001343CB60BFF34F8F00BFFDE700ED00E065
:10A674000400FA05072814D8DFE800F0080C1504D4
:10A68400110F0A066420704714207047FA2070479F
:10A694001E2070474FF4FA707047322070474B20E9
:10A6A4007047FA207047962070470000024B5868A4
:10A6B400103840B2704700BF00ED00E003460028A8
:10A6C4000FDB5B11084A52F82330424200F01F00AE
:10A6D40002F01F0258BF504223FA00F000F00100BC
:10A6E400704700F11F03ECE700E100E046DF70472C
:10A6F400F8B504460D464B1EDBB2012B02D9784651
:10A70400FCF7B8FD002222616261A261E261204689
:10A71400FFF7ECFF012612E0C818CA5C5200D2B25F
:10A72400407842EAD012CA5401339BB20E2BF3DDB7
:10A73400CB7B5B00CB73002F08DB0136F6B2AE4255
:10A744000BD8214611F9207F0023EFE794F82F302E
:10A7540083F0870384F82F30EFE7F8BD2DE9F0414B
:10A7640090B086460C4694461F4602F10F063611F9
:10A774001FFA86F804AD0068DEF80410DEF808203D
:10A78400DEF80C300FC50CF00F05B8F1000F02D045
:10A7940085B1002300E0002398466BB1012104A891
:10A7A400FFF7A6FFB8F1000F1BD0B0B201380001CB
:10A7B40010230EE00123EFE70221F0E7013B9BB2F7
:10A7C4002218D25C10A9194411F8101C4A400DF843
:10A7D4000320002BF2D100250C950D950E950F95B5
:10A7E40034E0B1B20139ADB22A4604EB0111684636
:10A7F40015F044FC80230DF805306B1C03E00022A7
:10A804000DF8032001330F2BF9DD10230AE0013B7F
:10A814009BB21DF8032010A9194411F8101C4A40DA
:10A824000DF80320002BF2D1D5E7013B9BB210AA0F
:10A834001A4412F8102C2118C95C4A4008A9CA54B9
:10A84400002BF2D104A8FFF751FF0135B3B2013B4D
:10A854009D4202DA28011023F2E710230AE0013BAB
:10A864009BB210AAD11811F8402C11F8101C4A40C0
:10A8740008A9CA54002BF2D104A8FFF737FF0CAC87
:10A884000FCC38607960BA60FB6010B0BDE8F0812D
:10A894000A4B1B68834207D0084B1B6853B15A69A3
:10A8A400904205D01346F9E74269044B1A6001E06F
:10A8B40042695A6100230370704700BF184F00209B
:10A8C40010B50446144B1B684BB14068124B1B680F
:10A8D4005B68C31A002B02DB0F4B196805E00E4BB3
:10A8E4001A6862611C6008E019464B691BB15A681A
:10A8F400121A002AF8DB63614C61074A93889BB201
:10A9040001339BB2938013B10123237010BD7846A9
:10A91400FCF7B0FCF8E700BF184F002038B5054637
:10A9240019E06369214A13600023636193889BB231
:10A93400591E89B291800BB3A3681BB30223237001
:10A94400A36821692846984700F030F90546237822
:10A95400DBB2022B1AD0154B1B6833B3134B1B68A5
:10A964005B685B1B642B20D5104B1C682378DBB21F
:10A97400012BD6D07846FCF77DFCD2E77846FCF76D
:10A9840079FCD9E77846FCF775FCD7E7E26812B999
:10A9940000232370DFE76368134463605B1B642B4D
:10A9A400F9D42046FFF78CFFD5E738BD184F0020B7
:10A9B40008B5124B1B6873B1104B1B685B68C31A54
:10A9C40013F1640F08D402230D4A00F1640101203D
:10A9D40000F0B0F870B908BD084B19680223084AA2
:10A9E4004968012000F0A6F80028F4D07846FCF766
:10A9F40041FC08BD7846FCF73DFCECE7184F00200D
:10AA040021AA020008B500F0D1F8FFF787FF00F093
:10AA1400CDF8FFF7CDFF012008BD000008B5024BBB
:10AA2400186800F067FD08BD144F002008B5054BF9
:10AA340000221A605A60044800F03CFD034B186081
:10AA440008BD00BF184F002009AA0200144F0020BF
:10AA540010B5044600F022FE80B19CB1A368ABB1EE
:10AA64002378DBB2012B15D0002363612046FFF766
:10AA740027FF00F09BF8FFF79BFF10BD7846FCF71B
:10AA8400F9FBEAE77846FCF7F5FBE7E77846FCF7DD
:10AA9400F1FBE5E77846FCF7EDFBE5E710B5044686
:10AAA40000F0FCFD50B16CB12046FFF7F1FE00232D
:10AAB400636100F07BF8FFF77BFF10BD7846FCF77D
:10AAC400D9FBF0E77846FCF7D5FBEDE738B504464B
:10AAD4000D4600F0E3FD70B18CB12046FFF7D8FEBF
:10AAE4000023636165602046FFF7EAFE00F05EF82C
:10AAF400FFF75EFF38BD7846FCF7BCFBECE7784611
:10AB0400FCF7B8FBE9E7000010B4094B00F1500270
:10AB1400002443F8224000F110040122A240C3F8AB
:10AB2400042300F5A87043F820105DF8044B704727
:10AB340000800040022801D90720704738B533F05F
:10AB4400030401D00A2038BDEFF31084104D2C60AB
:10AB540072B6104C44F820200F4A42F820100F4AD5
:10AB6400135400220E4B43F820200E4B1B7833B1B4
:10AB74000D4B1B68CA1A07D41146FFF7C5FF044BD7
:10AB8400186818B962B638BD5A1AF5E7002038BDFE
:10AB9400444F0020244F0020384F0020204F002035
:10ABA4004C4F0020304F0020344F0020EFF310832F
:10ABB4000C4A136072B60C4B1B787BB10B4B002212
:10ABC400C3F84C210122DA64D3F84C05084B1B6806
:10ABD4001844044B1B6803B962B67047054B1868E8
:10ABE400F7E700BF444F0020304F002000800040B2
:10ABF400344F0020484F002070B500240FE0784601
:10AC0400FCF738FB21E00146304600F0FDFB78BB41
:10AC140004F150030021194A42F823100134022C94
:10AC24002AD804F15003154A52F82330002BF5D0EA
:10AC3400D2F8043304F11005EB4013F0010FEDD00A
:10AC44000F4B53F82460002ED9D000220C4B43F84C
:10AC54002420012303FA05F5084BC3F80853FFF732
:10AC6400A5FF084B1B5D13F0020FCCD0B047CFE714
:10AC74007846FCF7FFFACBE770BD00BF00800040C8
:10AC8400244F0020204F002070B50546002414E016
:10AC9400981A27E05E1A29E02946184600F0B4FB0A
:10ACA400002836D12A4B53F824302BB101221A60E4
:10ACB4000022274B43F824200134022C3AD8254B98
:10ACC40004F5A872002143F8221004F1500243F85D
:10ACD400221053F82230204B53F824201F4B1B68BA
:10ACE400D01AD5D405F17801CE1AD3D4864214D91A
:10ACF4001B4B53F82430002BD4D00021184A42F8BF
:10AD04002410184A125D12F0020FC5D02846984745
:10AD1400C8E77846FCF7AEFAC4E7114B53F8243081
:10AD2400002BC9D0E0B2511B02D4FFF7EDFEC3E7FC
:10AD3400A91AFAE70C4B1B681BB94FF480720B4B32
:10AD44001A60064B1D600122094B1A7070BD00BFCA
:10AD54004C4F002000800040384F0020344F00202A
:10AD6400244F0020204F0020444F002000E100E049
:10AD7400304F0020002300E00133022B0ED80F4A8D
:10AD8400D25C12F0010FF7D000220C49CA540C49CE
:10AD940041F823200B4941F82320EDE70A4B1860C2
:10ADA40000220A4B1A704FF0FF32094BC3F80823F4
:10ADB4004FF48072074BC3F880217047204F002066
:10ADC400244F00204C4F0020484F0020304F0020DB
:10ADD4000080004000E100E030DF704731DF704761
:10ADE40010B4034600685A68A0EB72109C6882EAAB
:10ADF400F4321A60D9680C445C60014499601044D0
:10AE0400D8605DF8044B704770B582B00D460646B5
:10AE140008B100240BE07846FCF72CFAF9E79DF81A
:10AE240007103019FFF7DAFF9DF807301C44AC42D5
:10AE34000DD20DF10700FFF7CFFF9DF80730002B6F
:10AE4400F7D02A1B9342EAD98DF80720E7E702B02E
:10AE540070BD000030B583B00546002402A840F858
:10AE6400044D0421FFF7D0FF074B2B60019B6B605F
:10AE7400AB60EB6003E02846FFF7B2FF0134132C0C
:10AE8400F9D903B030BD00BFED5EEAF1704748DF89
:10AE9400704749DF70474ADF704700002DE9F043EF
:10AEA4001A4BD3F804650027837A5BBB184BD3E9AC
:10AEB4000045341B24F07F44002562016B01121B02
:10AEC40063EB0503590241EAD2514FEA422E1EEBCD
:10AED400040241EB05034FEA831949EA92694FEAF8
:10AEE4008218B8EB020269EB0303A4185D41E30B7B
:10AEF40043EA4543426813444360054BC3E9006792
:10AF0400BDE8F083002383720368F3E700B00040D8
:10AF1400B84F002010B504460023C3600361FFF757
:10AF2400BDFF2368084A926822600121217503B994
:10AF3400064B991AA161B1F57A7F01D3934202D2EB
:10AF44004FF47A73A36110BDA44F0020809698003B
:10AF5400094B03221A75094A9A611A6840F6D863A4
:10AF64009A4204D840F6D862044B9A60704743F280
:10AF7400B062024B9A607047844F0020A44F0020B7
:10AF840008B50B4B1B78012B05D0022B0BD0784650
:10AF9400FCF770F903E00223037501238372002296
:10AFA400034B1A7008BD03230375024B8361F6E754
:10AFB400B54F0020A44F002038B505460024047581
:10AFC400012343724068FFF75FFE0BF0C9FC6B6816
:10AFD4002A6813440A490968283101FB02F1094A25
:10AFE400A2FB0121A3EB91410323074A78392046B0
:10AFF400FFF7A0FD00B938BD7846FCF73BF9FAE746
:10B00400A04F002083DE1B4355AF020010B50C4651
:10B0140031B1036901330361826903681344036036
:10B02400C3680133C36001220275826952088261D8
:10B03400012B0DD0022B19D08269036813441749E0
:10B044008B4222D840F6D7639A4221D800231DE0D0
:10B05400B2F5FA7F05D040F6D8639A42ECD8836102
:10B06400EAE7002CF7D100238361E5E70369022BAB
:10B0740006D0012BE0D1002CDED100238361DBE775
:10B084000268064B9B1A8361D6E7002313B110BDF7
:10B094000123FBE7FFF790FFF9E700BF80969800D4
:10B0A400437A1BB900220E4B1A70704710B5044640
:10B0B4000BF072FC6068226810440A4B1B6828334A
:10B0C40003FB02F3084AA2FB0323A0EB9340783866
:10B0D400FFF750FE002363720022014B1A7010BD6B
:10B0E400B44F0020A04F002083DE1B4308B501228B
:10B0F400214B1A72214B1B7813B1214B1B781BB3C4
:10B1040000221D4B1A7504281AD8DFE800F0031436
:10B11400110C07001848FFF7FDFE1EE00121164838
:10B12400FFF774FF19E000211348FFF76FFF14E0E5
:10B134000BF0D0FB11E0FFF75FFD0BF0FFFB0CE021
:10B144007846FCF797F808E0FFF730FD0A4B5A6899
:10B15400801A18601846FFF713FF074B1B7D023B4C
:10B16400DBB2012B04D9044800230372143008BD58
:10B174000148FFF795FFF6E7844F0020B54F002004
:10B18400B44F002008B50438032806D8DFE800F0DF
:10B194000E1A0A02FFF77DFE00B908BD7846FCF7D7
:10B1A40069F808BD7846FCF765F808BD0A4840F61A
:10B1B400D8638360FFF76FFE0028EED07846FCF773
:10B1C40059F808BD0448FFF766FE0028E5D0784624
:10B1D400FCF750F8E1E700BFA44F002010B40D4A7B
:10B1E4000023137013710121517143F2B064946010
:10B1F40043F69824D460084A1060084A1370084A39
:10B204001370084A137253721360917253605DF89D
:10B21400044B7047A44F0020A04F0020B44F0020DF
:10B22400B54F0020844F002008B50648FFF72FFED5
:10B23400034608B1184608BD0348FFF72CFE034631
:10B24400F8E700BFF1B00200A44F0020084B1B7DBB
:10B25400032B09D0074B1B78012B07D0022B01D0FD
:10B26400002070470120704701207047012070477B
:10B27400844F0020B54F0020014B5868704700BF31
:10B28400844F00200E4B5B7A0BB90020704710B539
:10B294000B4B5C681A6814440A4B1B68283303FB85
:10B2A40002F3094AA2FB0323A4EB9344783CFFF77F
:10B2B4007DFC0346201A00D410BD181B10BD00BF2E
:10B2C400844F0020A04F002083DE1B43014B187ADB
:10B2D400704700BF844F0020EFF3108372B6054A15
:10B2E400527A22B14FF48071034AC2F8001103B9B3
:10B2F40062B67047844F002000E100E008B50122E7
:10B30400024B1A70FFF7E8FF08BD00BFB54F0020DD
:10B3140008B50222024B1A70FFF7DEFF08BD00BF1A
:10B32400B54F002008B5094B1B782BB148B9084B21
:10B334001B7813B1012300E00023044A107013B9F1
:10B3440008BD0023F9E7FFF7C7FFF9E7B44F002072
:10B35400B54F002008B50378012B0ED013B1022B92
:10B3640005D008BD436863B18068984708BD436849
:10B374003BB1C1688068984708BD43680BB18068D9
:10B38400984708BD044B1B780F2B04D04FF4802240
:10B39400024BC3F8002170470451002000E100E093
:10B3A40010B501460548FEF787F810B1042420467D
:10B3B40010BD0446FFF7E6FFF9E700BFC04F0020C9
:10B3C40010B50C4C20700C480C4B036010234360E8
:10B3D4008360FEF755F80A48FFF7E6F823780F2B49
:10B3E40007D05B01DBB2074A82F812334FF48023A3
:10B3F400136010BD04510020C04F0020D44F002022
:10B404000851002000E100E030B585B00C46054647
:10B4140048B100238DF80030019502946846FFF787
:10B42400BFFF05B030BD7846FBF724FFF1E700000D
:10B4340010B5EFF3108472B60A490A68531C0B6006
:10B4440042B9094A12780F2A04D04FF48021074ADE
:10B45400C2F8801013B104B962B610BD7846FBF788
:10B4640009FFF8E7D45000200451002000E100E077
:10B4740010B5EFF3108472B60B4B1B687BB10A4A0C
:10B484001368013B13603BB9084B1B780F2B03D0A7
:10B494004FF48022064B1A6004B962B610BD784698
:10B4A400FBF7E8FEEBE700BFD45000200451002076
:10B4B40000E100E010B5044680B10C4B1B68082B7A
:10B4C40010D8EFF3108372B6084A1068411C11605B
:10B4D400074A42F8204003B962B610BD7846FBF72C
:10B4E400C9FEEAE77846FBF7C5FEEAE7D850002034
:10B4F400DC50002038B504460D4B1B68834213D939
:10B50400EFF3108572B661090A4A04F01F0401239F
:10B5140003FA04F452F82130234342F82130FFF7B0
:10B5240031FF05B962B638BD7846FBF7A3FEE7E7FD
:10B53400D85000200051002070B50D461646044630
:10B5440058B175B1EFF3108372B6A560E6600022BE
:10B554002274246003B962B670BD7846FBF78AFE94
:10B56400EFE77846FBF786FEECE7000038B50446C3
:10B5740050B1A36863B1EFF3108572B6237C5BB15D
:10B58400112005B962B638BD7846FBF773FEF0E7C3
:10B594007846FBF76FFEEEE7012323742146034848
:10B5A400FFF70DF8FFF7EEFE0020EAE70851002050
:10B5B40010B5044608B1207C10BD7846FBF75AFE4E
:10B5C400F9E7000070B584B02C4B1B7823B9012532
:10B5D4002A4B1D7000240AE07846FBF74BFEF6E781
:10B5E400274B53F8243098470646F0B10134254BD5
:10B5F4001B689C421ED26109234A52F8213004F090
:10B604001F00C34013F0010FF0D0EFF3108372B6A4
:10B61400012606FA00F052F8216026EA000642F8F4
:10B624002160002BDCD162B6DAE72046FFF762FF27
:10B634003546DBE71548FEF7DEFF07E0A368E06860
:10B644009847002323741148FEF7D5FF50B10468CE
:10B65400237C002BF2D17846FBF70CFEEEE768461C
:10B66400FFF778FE69460A48FDF753FF0028F6D035
:10B674000022024B1A70284604B070BD10510020FD
:10B68400DC500020D8500020005100200851002038
:10B69400C04F002008B5FFF795FF08BD00B583B083
:10B6A400FFF704F88DF807009DF807305BB213F13B
:10B6B400100F18D09DF807305BB2002B21DB03F18B
:10B6C400604303F5614393F800335B090093154B22
:10B6D4001B78009A934220D0009A934217D30020FB
:10B6E40003B05DF804FB0F4B1B780F2B07D012201F
:10B6F400FEF7E4FF08B90120F2E70020F0E701209B
:10B70400EEE703F00F03084AD35C5B09DEE712207F
:10B71400FEF7D4FF18B10020E2E70120E0E70120A2
:10B72400DEE700BF0451002014ED00E046DF70475F
:10B7340070B58CB003460E4615466C4600685968D1
:10B744009A68DB680FC430687168B268F3680FC424
:10B754006846FFF7EBFF08AC0FCC28606960AA606D
:10B76400EB600CB070BD08B5FEF7F8FF08BD08B576
:10B7740002F02BF808BD08B502F061F808BD38B531
:10B78400032900F29380DFE801F002353567197070
:10B79400817A5A7861F306025A70C17AD2B261F39F
:10B7A400C7125A70C168C1F3074201F47F442243AF
:10B7B400090401F47F010A4300219A70C2F30724AB
:10B7C400DC70120C1A710489220A42EA0422A3F8DA
:10B7D4000520D971197201690A0202F47F0242EA52
:10B7E4000162080A00F47F40024342EA1162C3F88E
:10B7F400092038BD1970597801F0800162F3C7112E
:10B804005970C168C1F3074201F47F44224309041B
:10B8140001F47F010A439A70C2F30721D970120C14
:10B824001A7101890A0A42EA0122A3F80520418813
:10B834000A0A42EA0122A3F8072001690A0202F473
:10B844007F0242EA0162080A00F47F40024342EAAE
:10B854001162C3F8092038BD197000245C70C168F6
:10B86400C1F3074201F47F452A43090401F47F012F
:10B874000A439A70C2F30721D970120C1A71018914
:10B884000A0A42EA0122A3F80520DC711C7201694C
:10B894000A0202F47F0242EA0162080A00F47F40CD
:10B8A400024342EA1162C3F8092038BD7846FBF727
:10B8B400E1FC38BD70B584B00E461446054668B147
:10B8C40062B100230093019302930393234632460B
:10B8D40029466846FFF747FF04B070BD7846FBF77A
:10B8E400C9FCEEE7F0B585B00F4614461D46064682
:10B8F40090B18AB183B10B9B73B16B463A46314622
:10B904002046FFF730FF0B9B9DF828202946684608
:10B91400FFF729FF05B0F0BD7846FBF7ABFCECE779
:10B924002DE9F04786B000AF88461546994604468F
:10B93400002858D0002956D0002B54D005F1110608
:10B9440005F1100A05F1180323F00703ADEB030D0D
:10B95400274B1B6807F1180040F8043D6A46042190
:10B96400FFF7A8FF3B1D102221466846FFF7FBFEA8
:10B974002A464146684614F081FB01230DF8053040
:10B98400EA186B4692B26946381DFFF7ECFE9DF843
:10B994000F3003F07F034C4604F8013B2A4641462E
:10B9A40004A814F06BFB02230DF80A30B6B2234648
:10B9B40032466946381DFFF7D6FE20686168A268E2
:10B9C400E368009001910292039303230DF80A3077
:10B9D40009F1110332466946381DFFF7C4FE1837D2
:10B9E400BD46BDE8F0877846FBF744FCA6E700BFF8
:10B9F400140A040070B588B00D46064600B3F9B1C8
:10BA0400114C6368039304AA042103A8FFF752FFAF
:10BA140004AB102231461846FFF7A5FE083494E81B
:10BA2400030001908DF8081004AB052201A9184603
:10BA3400FFF799FE06AB03CB2860696008B070BDC0
:10BA44007846FBF717FCDBE7140A040070B586B0F0
:10BA54000D460646F8B1F1B1114C2369019302AACF
:10BA640004210DEB0100FFF725FF02AB1022314644
:10BA74001846FFF778FE636906A941F8183D02AB42
:10BA840004221846FFF76FFE9DF8173003F03F03BA
:10BA94002B7006B070BD7846FBF7ECFBDCE700BF0B
:10BAA400140A040010B5044658B123787BB1E36846
:10BAB400B3F1807F0DD294F90A30002B05DB01200D
:10BAC40010BD7846FBF7D6FBEFE7002010BD002041
